:020000040800F2
:1030000000000120218B00084D6300085163000877
:1030100055630008596300085D6300080000000064
:1030200000000000000000000000000065630008D0
:103030006163000800000000696300086D64000817
:103040006D63000871630008756300087963000808
:103050007D630008816300088563000889630008B8
:103060008D6300089163000895630008000000006C
:103070000000000000000000000000000000000050
:103080000000000000000000B5630008B9630008FC
:10309000BD630008C1630008C5630008C963000878
:1030A000CD630008D1630008D5630008D963000828
:1030B00061640008DD630008E1630008E56300085F
:1030C000E9630008ED630008F1630008F563000898
:1030D000F963000855640008FD63000801640008F6
:1030E00005640008096400080D6400081164000804
:1030F00015640008196400081D64000821640008B4
:1031000025640008296400082D6400083164000863
:1031100035640008396400083D6400084164000813
:1031200045640008496400084D64000851640008C3
:043130005FF8000044
:10313400034A002313701378024A13707047C04681
:103144007001002071010020034B1878034B1B7899
:10315400C01A18BF012070477101002070010020BF
:10316400DFF820C008489CF80020037805499A42FB
:10317400F9D00B78054AD05C0B780133DBB20B70C5
:103184007047C046710100207001002070000020CB
:10319400034A136813B11368013B13607047C046B8
:1031A40074010020014B18607047C046780100206C
:1031B400034B1868D0F1010038BF00207047C046A7
:1031C4007801002010B50446012004F08FFB074B62
:1031D4001C601A461368002BFCD16FF0010004F048
:1031E40085FB002004F082FB10BDC0467401002062
:1031F40000B542F2283081B004F072FB012004F0E3
:103204008BFB01B000BDC04630B50A4881B040F226
:10321400255105F085FB50B1074D06482C7805F083
:1032240011FB064BC0B218550134E4B22C7001B046
:1032340030BDC046003801407001002070000020FD
:1032440000B54FF0804081B0022105F0D9F9C8B132
:1032540002214FF0804005F0DFF94FF0804005F087
:10326400ABF9094B18601968084B4FF080401B8874
:10327400C91889B205F05AF9054A136813B11368DD
:10328400013B136001B000BD6C0000200800002069
:103294007801002070B588B00DF1160528460DF1AF
:1032A40006064FF0804404F057FE304604F060FEFA
:1032B400204605F0B7F94FF0FF33ADF81A30204639
:1032C4004FF000032946ADF81630ADF81C30ADF8C8
:1032D400183004F049FB0122204640F2D22104F0C8
:1032E40035FF4FF00003ADF80630ADF80830ADF807
:1032F4000E300B4B20461B883146ADF80C3004F0E1
:103304005DFB2046002104F0B5FF20460221012286
:1033140004F06CFE2046012104F04CFE08B070BDA0
:103324000800002000B581B281B0054805F086FA96
:103334000348402105F0E8FA0028F9D001B000BDA7
:1033440000480040030910B5044603F13000392851
:1033540088BF0730FFF7E6FF04F00F0303F13000E6
:10336400392888BF0730FFF7DDFF10BD10B50446CC
:10337400E4B2000AFFF7E6FF2046FFF7E3FF10BDC3
:1033840030B5054681B0002401E0FFF7CBFF285D8E
:1033940001340028F9D101B030BDC04610B5202158
:1033A40004460D4803F0B8FDA4B20B48102103F005
:1033B400B1FD0A48214605F041FA0848402105F0CC
:1033C400A3FA0028F9D01021034803F0A5FD024810
:1033D400202103F09FFD10BD000C01400038014086
:1033E40000B5034881B0002105F0AEF901B000BD7D
:1033F4000038014070B584B0054668460C4605F0B7
:1034040077F94FF00003ADF80430ADF80630ADF8AD
:103414000830ADF80C304FF00C036E460094ADF854
:103424000A308DB9114805F0F7FA0A20FFF7CAFEF1
:103434000E48694605F0A2FA0C4840F225510122D3
:1034440005F090F909480CE0022D0DD1084805F06B
:10345400E3FA0A20FFF7B6FE0548694605F08EFA3E
:103464000348012105F070F904B070BD0038014033
:103474000048004000B5014681B00020FFF7BAFFC4
:1034840001B000BD70B582B001AD1E4C284603F0FA
:1034940025FD4FF03003ADF80430032610232046F9
:1034A40029468DF807308DF8066003F0C3FC4FF40D
:1034B4000863ADF804302046042329468DF807300C
:1034C40003F0B8FC4FF48863ADF8043020461823A9
:1034D40029468DF807308DF8066003F0ABFC042014
:1034E400012103F041FD0121074803F03DFD204681
:1034F400102103F011FD2046202103F00BFD02B042
:1035040070BDC046000C01400004300070B54FF49B
:10351400405182B04FF0006003F0A0FE01AE4FF4C2
:10352400A06003F0FDFD00252523012430468DF81D
:1035340004308DF805508DF806508DF8074003F0DF
:10354400F9FD1C2330468DF804308DF805408DF8C4
:1035540006508DF8074003F0EDFD02B070BDC04683
:1035640000B581B003F0DCFF4FF4803003F0F8FFC6
:1035740004F010F8012824D1102003F0DFF9022010
:1035840003F0C4F9002004F04FF8002004F060F8C0
:103594004FF4806004F052F84FF480304FF4E0119F
:1035A40004F020F8012004F027F8392004F050F941
:1035B4000028FAD0022004F025F804F02DF8082899
:1035C400FBD1012144F2080004F0F8F80448012179
:1035D40004F002F9012003F033FF01B000BDC0463E
:1035E40001000400F0B5062881B006464B4B4C4A56
:1035F4004C4C4D4D4D4F43DC187812681E2103F09E
:10360400E3F820782A681E2103F0DEF8484B387866
:103614001A681E21143A03F0D7F8464B1E21187875
:10362400454B1A68143203F0CFF8444B1E21187826
:10363400434B1A680A3203F0C7F8424B1E2118782C
:10364400414B1A680A3A03F0BFF8404B1E21187820
:103654003F4B1A6803F0B8F83E4B1E2118783E4BD6
:103664001A68143A03F0B0F83C4B1E2118783C4B0E
:103674001A6803F0A9F83B4B18783B4B1A6848E0EA
:1036840018781E21126803F09FF81E2120782A68FA
:1036940003F09AF8264B1E211A683878283A03F06A
:1036A40093F8244B1E211878234B1A680A3203F02E
:1036B4008BF8224B1E211878214B1A68143203F020
:1036C40083F8204B1E2118781F4B1A681E3A03F00A
:1036D4007BF81E4B1E2118781D4B1A6803F074F8F2
:1036E4001E4B1E2118781E4B1A6803F06DF81D4BF3
:1036F4001E2118781C4B1A6803F066F8092E154B26
:10370400154A03D1126818780F3A02E01268187843
:1037140005321E2103F058F801B0F0BD5C00002012
:103724002C0000205D000020300000205E000020FE
:10373400340000205F0000203800002060000020DA
:103744003C000020610000204000002062000020B6
:103754004400002063000020480000206400002092
:103764004C0000206500002050000020F0B581B01E
:10377400FFF7F6FEFFF7CAFEFFF784FEFFF738FDFA
:10378400FFF788FD0121002003F0A6F8DFF87C3C58
:1037940002201968FFF72EFEDFF8743CDFF8742C62
:1037A4001E2110781A6803F00FF8DFF86C3C1E2114
:1037B4001878DFF8683CDFF8684C1A6803F004F8FE
:1037C400DFF8603C1E211878DFF85C3CDFF85C7C95
:1037D4001A6802F0F9FFDFF8583C1E211878DFF868
:1037E400543CDFF8546C1A6802F0EEFFDFF84C3CEE
:1037F4001E211878DFF8483CDFF8485C1A6802F0AC
:10380400E3FFDFF8443C1E211878DFF8403C1A68D7
:1038140002F0DAFFDFF8383C1E211878DFF8343C78
:103824001A6802F0D1FFDFF8303C1E211878DFF867
:103834002C3C1A6802F0C8FF0120FFF7D3FE40F2C7
:10384400E113DFF81C2C23602F331360DFF8142CF2
:10385400843B1360DFF8103C40F271221A60DFF8F9
:103864000C2C40F203131360DFF8042C03F5EA7305
:103874001360DFF8002C7B3B1360C33B3B60443395
:10388400336030332B600120FFF7ACFE5020FFF78C
:1038940099FC40F2DF13DFF8C82B23602C3313604C
:1038A400DFF8C02B843B1360DFF8BC3B40F271228D
:1038B4001A60DFF8B82B40F211131360DFF8B02B55
:1038C4004FF43A731360DFF8AC2B853B1360D13BA4
:1038D4003B60483333602C3301202B60FFF782FEBA
:1038E4005020FFF76FFCDFF82C3B2E21187802F0F4
:1038F400BDFFDFF8842B107002F002FEDFF87C3B82
:10390400C0B201281870EED1DFF86C2B1378002BAD
:10391400E9D1DFF80C3B40F2DD121A60DFF8403BDE
:1039240029321A60DFF83C3B7D3A1A60DFF8383BF5
:10393400EA321A60DFF8342B4FF48D731360DFF82A
:10394400303BDFF8307B40F2F522DFF8E06A1A60A2
:103954004FF41A73DFF8E05ADFF8E84A3B60DB3BC8
:10396400A2F58F72336072332A602360FFF73AFE48
:103974005020FFF727FCDFF8A82A40F2DB1313607E
:10398400DFF8DC2A26331360DFF8D82A723B136091
:10399400DFF8D42AE8331360DFF8D02A4FF49073A9
:1039A4001360DFF8CC2A03F5EF731360943B4FF4F4
:1039B400C5723B603260963B6F322B6022600120FF
:1039C400FFF710FE5020FFF7FDFBDFF8543A40F2FA
:1039D400D9121A60DFF8883A24321A60DFF8842A90
:1039E4004FF4CB731360DFF8803A40F27A221A6006
:1039F400DFF8783AA2F5AA72033A1A60DFF8702A5F
:103A040040F2053313609A3B40F289123B60326006
:103A14009B3B69322B6022600120FFF7E3FD5020BD
:103A2400FFF7D0FBDFF8F83940F2D7121A60DFF85D
:103A3400303A22321A60DFF82C3A5D3A1A60DFF825
:103A4400283AE1321A60DFF8243A4FF492721A608D
:103A5400DFF81C2A40F209331360A03B4FF4C47210
:103A64003B6032609C3B65322B6001202260FFF793
:103A7400B9FD5020FFF7A6FBDFF8A43940F2D512B8
:103A84001A60DFF8DC3920321A60DFF8D839563A88
:103A94001A60DFF8D439E0321A60DFF8D039A2F5C1
:103AA400AD721A60DFF8C8394FF443721A6040F2FD
:103AB40066234FF4C4723B6032609C3B5F322B60E0
:103AC40022600120FFF78EFD5020FFF77BFBDFF81B
:103AD400503940F2D3121A60DFF884391E321A606A
:103AE400DFF88039523A1A60DFF87C39E1321A6023
:103AF400DFF87839A2F5AC72033A1A60DFF870394E
:103B040002F5F4721A604FF418734FF4C4723B60F8
:103B14003260993B5A322B6022600120FFF762FD2C
:103B24005020FFF74FFBDFF8F8384FF4E9721A60C2
:103B3400DFF82C391C321A60DFF82839513A1A6040
:103B4400DFF82439E3321A60DFF82039A2F5AC72C9
:103B5400033A1A60DFF8183902F5F4721A604FF468
:103B64001673A2F5C3723B603260953B56322B60EC
:103B740022600120FFF736FD5020FFF723FBDFF81A
:103B8400A0384FF4E8721A60DFF8D4381A321A6099
:103B9400DFF8D038533A1A60DFF8CC38EA321A60CA
:103BA400DFF8C838A2F5AE721A60DFF8C43802F53F
:103BB400F4721A6040F24F23A2F5C3723B60326084
:103BC4008F3B52322B6022600120FFF70BFD502007
:103BD400FFF7F8FADFF848384FF4E7721A60DFF8B5
:103BE400803819321A60DFF87C38583A1A60DFF8E6
:103BF4007838F2321A60DFF874284FF49373136044
:103C0400DFF86C3840F20D321A6040F245234FF46D
:103C1400C3723B603260883B4F322B6022600220CB
:103C2400FFF7E0FC5020FFF7CDFADFF8F4374FF44C
:103C3400E6721A60DFF8283819321A60DFF824387F
:103C4400603A1A60DFF82038FC321A60DFF81C385A
:103C5400A2F5AD721A60DFF818384FF443721A6097
:103C640040F23A234FF4C3723B6032607F3B4B32E5
:103C74002B6022600220FFF7B5FC5020FFF7A2FA68
:103C8400DFF89C374FF4E5721A60DFF8D437183246
:103C94001A60DFF8D037683A1A60DFF8CC3702F5DB
:103CA40084721A60DFF8C437A2F5AC72013A1A6064
:103CB400DFF8BC3702F5F1721A6040F22E234FF49C
:103CC400C2723B603260763B4A322B602260022033
:103CD400FFF788FC5020FFF775FADFF8443740F20D
:103CE400C9121A60DFF8783717321A60DFF87437B0
:103CF400733A1A60DFF8703702F58B721A60DFF8D6
:103D04006C374FF496721A60DFF8643702F5EE727E
:103D140003321A6040F22123A2F5C4723B60326080
:103D24006C3B48322B6022600220FFF75BFC502082
:103D3400FFF748FADFF8E83640F2C7121A60DFF8F6
:103D4400203717321A60DFF81C2740F26113136022
:103D5400DFF814374FF421721A60DFF81037A2F538
:103D6400AA72013A1A60DFF8083702F5EC720332DE
:103D74001A604FF405733B60613B4FF4C1722B60D2
:103D84001533326023600220FFF72CFC5020FFF72C
:103D940019FADFF88C264FF4E3731360DFF8C026BA
:103DA40017331360DFF8BC26883B1360DFF8B8369E
:103DB40040F285221A60DFF8B42640F23313136010
:103DC400DFF8AC3640F20A321A60A2F5C472013A46
:103DD4004FF402733B603260573B45322B602260E4
:103DE4000220FFF7FFFB5020FFF7ECF9DFF8303635
:103DF4004FF4E2721A60DFF8683617321A60DFF89F
:103E04006436923A1A60DFF8603602F59E72013227
:103E14001A60DFF8582640F237131360DFF8503683
:103E240040F20A321A60A2F5C472033A4FF4FE73E8
:103E34003B6032604E3B45322B6022600220FFF72C
:103E4400D1FB5020FFF7BEF9DFF8D43540F2C3129E
:103E54001A60DFF80C3617321A60DFF8082640F2D1
:103E64003F131360DFF8003640F287221A60DFF850
:103E7400FC254FF49E731360DFF8F43540F20A32E8
:103E84001A604FF4F8734FF4BF723B603260433BE7
:103E940044322B6022600220FFF7A4FB5020FFF77E
:103EA40091F9DFF87C354FF4E1721A60DFF8B03530
:103EB40017321A60DFF8AC35A33A1A60DFF8A83578
:103EC40002F5A87201321A60DFF8A035A2F5A372D8
:103ED4001A60DFF89C3502F5E5721A6040F2E513CA
:103EE400A2F5C7723B6032603A3B44322B602260D9
:103EF4000220FFF777FB5020FFF764F9DFF8203545
:103F040040F2C1121A60DFF8583517321A60DFF830
:103F14005435A93A1A60DFF850354FF422721A600A
:103F2400DFF848354FF4A3721A60DFF8443502F520
:103F3400E27201321A604FF4ED734FF4BE723B60CB
:103F44003260313B44322B6022600220FFF74AFB8F
:103F54005020FFF737F9DFF8C8344FF4E0721A60E5
:103F6400DFF8FC3417321A60DFF8F834AE3A1A601E
:103F7400DFF8F4344FF422721A60DFF8F0344FF4AF
:103F8400A6721A60DFF8E8344FF443721A6040F204
:103F9400D1134FF4BE723B603260293B43322B6035
:103FA40022600320FFF71EFB5020FFF70BF9DFF818
:103FB40070344FF4E0721A60DFF8A43417321A60D8
:103FC400DFF8A034B23A1A60DFF89C344FF422725E
:103FD4001A60DFF8982440F251131360DFF890243C
:103FE40003F5DE73013313604FF4E47340F27B1284
:103FF4003B603260213B43322B6022600320FFF799
:10400400F1FA5020FFF7DEF8DFF8143440F2BF1263
:104014001A60DFF84C3418321A60DFF84834B43AC6
:104024001A60DFF8443402F5B2721A60DFF83C24F7
:1040340040F257131360DFF8383440F20F321A603D
:104044004FF4E073A2F5CA723B6032601A3B43320C
:104054002B6022600320FFF7C5FA5020FFF7B2F867
:10406400EF4B40F2BF121A60FD4B18321A60FD4B41
:10407400B43A1A60FC4B02F5B2721A60FB4A40F281
:104084005D131360FA4A4FF4447313604FF4DD7305
:1040940040F27B123B603260153B43322B6022605E
:1040A4000320FFF79FFA5020FFF78CF8DC4B40F217
:1040B400BF121A60EA4B18321A60EA4BB33A1A601C
:1040C400E94B02F5B1721A60E84B4FF4B1721A6011
:1040D400E74B02F5D8721A604FF4DA734FF4BE72EC
:1040E4003B6032600F3B42322B6022600320FFF7BB
:1040F40079FA5020FFF766F8C94B4FF4DF721A6063
:10410400D74B19321A60D74BB03A1A60D64B02F526
:10411400AF721A60D54A4FF4B4731360D44A03F5EE
:10412400D473033313604FF4D8734FF4BE723B60FF
:1041340032600B3B42322B6022600320FFF752FABD
:104144005020FFF73FF8B64B4FF4DF721A60C44BB0
:104154001A321A60C34A40F22B131360C24B40F266
:1041640083221A60C14BA2F58B721A60C04B4FF4C4
:1041740045721A6040F2AD133B60A2F5CA72093B66
:10418400033A2B601B33326023600320FFF72AFAC3
:104194005020FFF717F8A24A40F2BF131360B04A49
:1041A40019331360AF4AA83B1360AF4B40F282222D
:1041B4001A60AE4B4FF4B9721A60AD4A40F216332E
:1041C40013604FF4D5734FF4BF723B603260053B0C
:1041D40042322B6022600320FFF704FA5020FEF7DE
:1041E400F1FF8F4B40F2BF121A609D4B1A321A60D6
:1041F4009C4BA33A1A609C4B02F5A47203321A60DA
:104204009A4A40F277131360994B40F217321A60BE
:1042140040F2A913A2F5CC723B603260043B4232F7
:104224002B6022600320FFF7DDF95020FEF7CAFF60
:104234007B4B40F2BF121A60894B1B321A60894BC8
:104244009D3A1A60884B4FF420721A60874BA2F58E
:104254008272013A1A60864B4FF446721A60A2F5D4
:10426400CA72033A4FF4D4733B603260023B41326A
:104274002B6022600320FFF7B5F95020FEF7A2FF60
:10428400674B4FF4E0721A60754B1B321A60754A23
:104294004FF4A2731360744B4FF420721A60734B83
:1042A400A2F58072013A1A60714B02F5CD721A6060
:1042B40040F2A9134FF4C1723B603260033B4132B8
:1042C4002B6022600420FFF78DF95020FEF77AFF5F
:1042D400534B40F2C1121A60614B1C321A60614B9D
:1042E400913A1A60604B4FF420721A605F4BFD3AAA
:1042F4001A605F4B02F5CB721A604FF4D573A2F5C6
:10430400CB723B603260023B42322B60226004205D
:10431400FFF768F95020FEF755FF414B4FF4E17267
:104324001A604F4B1C321A604E4A40F2531313600A
:104334004D4B4FF420721A604C4BF93A1A604C4BB7
:1043440002F5C87203321A6040F2AB134FF4C27222
:104354003B603260023B43322B6022600420FFF753
:1043640041F95020FEF72EFF2D4B40F2C3121A6084
:104374003B4A40F2DF1313603A4A843B13603A4BE2
:104384004FF420721A60394BF63A1A60384B02F532
:10439400C8721A60A2F5CA72013A4FF4D7733B602F
:1043A4003260043B44322B6022600420FFF71AF988
:1043B4005020FEF707FF1A4B4FF4E2721A60284BA5
:1043C4001D321A60274B7F3A1A60274B02F58E7212
:1043D40003321A60254BF43A1A60254B02F5C67273
:1043E4001A604FF4D8733B60043B4FF4C3722B60E4
:1043F4001F33326023600420FFF7F4F85020FEF7E7
:10440400E1FE074A40F2C5133AE0C046040000202A
:104414000C00002054000020550000201000002053
:104424002C0000205600002014000020480000202A
:1044340057000020180000204C00002058000020E5
:104444001C00002050000020590000202000002003
:104454005A000020240000205B00002028000020D7
:104464003000002034000020380000203C000020F0
:10447400400000204400002081010020820100202F
:104484001360DFF8442C1E331360DFF8402C7A3BB2
:104494001360DFF83C2C03F58C7301331360DFF8F1
:1044A400342CF23B1360DFF8303C40F219321A60CE
:1044B4004FF4DA73A2F5C9723B603260063B4632B0
:1044C4002B6022600420FFF78DF85020FEF77AFE5F
:1044D400DFF8083C4FF4E3721A60DFF8EC3B1F325C
:1044E4001A60DFF8E83B753A1A60DFF8E43B4FF4F2
:1044F40021721A60DFF8DC3BF23A1A60DFF8D83B2D
:104504004FF446721A6040F2B7134FF4C4723B6022
:104514003260073B48322B6022600420FFF762F8C8
:104524005020FEF74FFEDFF8B43B4FF4E4721A60FC
:10453400DFF8943B1F321A60DFF8903B713A1A603F
:10454400DFF88C3B02F5867203321A60DFF8843B95
:10455400F03A1A60DFF8803B02F5C1721A6040F24B
:10456400BB133B60093B4FF4C4722B6020333260B1
:1045740023600420FFF736F85020FEF723FEDFF80F
:104584005C2B40F2C9131360DFF83C2B203313601B
:10459400DFF8382B6E3B1360DFF8342B03F586739A
:1045A4001360DFF8302BF03B1360DFF82C2B03F59E
:1045B400BF731360A3F5AB734FF4C4723B603260F6
:1045C4000B3B4D322B6022600420FFF70BF8502088
:1045D400FEF7F8FDDFF8043B40F2CB121A60DFF877
:1045E400E83A20321A60DFF8E43A6B3A1A60DFF8EE
:1045F400E03A4FF422721A60DFF8D83AF03A1A60BF
:10460400DFF8D43A4FF445721A6040F2C3134FF402
:10461400C4723B6032600C3B50322B602260042039
:10462400FEF7E0FF5020FEF7CDFDDFF8B03A40F290
:10463400CD121A60DFF8903A20321A60DFF88C3A13
:10464400693A1A60DFF8883A02F583721A60DFF873
:10465400843AF03A1A60DFF8803A02F5BC721A60C4
:1046640040F2C7134FF4C4723B6032600E3B5332C6
:104674002B6022600520FEF7B5FF5020FEF7A2FD57
:10468400DFF8583A40F2CF121A60DFF83C3A203291
:104694001A60DFF8383A683A1A60DFF8343A02F5FB
:1046A40082721A60DFF82C3AEF3A1A60DFF8283A7F
:1046B40002F5B87203321A6040F2CB133B600F3B31
:1046C400A2F5C4722B602233326023600520FEF70A
:1046D40089FF5020FEF776FDDFF8002A40F2D1135F
:1046E4001360DFF8E42921331360DFF8E029683B25
:1046F4001360DFF8DC294FF423731360DFF8D42947
:10470400EF3B1360DFF8D02903F5B873136040F270
:10471400CF124FF4C3733A603360103A5B332A60AC
:1047240023600520FEF75EFF5020FEF74BFDDFF807
:10473400AC2940F2D3131360DFF88C2921331360C2
:10474400DFF88829683B1360DFF884294FF423736A
:104754001360DFF88029EE3B1360DFF87C2903F552
:10476400B6731360A3F5C273013B4FF4E9723A6068
:104774003360103A5F332A6023600520FEF732FF6E
:104784005020FEF71FFDDFF8542940F2D5131360C3
:10479400DFF8342921331360DFF83029683B1360D4
:1047A400DFF82C29FE331360DFF82829ED3B136072
:1047B400DFF8242903F5B47313604FF4EB7340F26C
:1047C40083123B603260113B65322B60226005200E
:1047D400FEF708FF5020FEF7F5FCDFF8003940F241
:1047E400D7121A60DFF8E03822321A60DFF8DC38BA
:1047F4006A3A1A60DFF8D838FC321A60DFF8D43825
:10480400EB3A1A60DFF8D0284FF4417313604FF489
:10481400ED7340F281123B603260113B6A322B60CF
:1048240022600520FEF7DEFE5020FEF7CBFCDFF809
:10483400AC3840F2D9121A60DFF88C3822321A6090
:10484400DFF888386C3A1A60DFF88438FB321A6073
:10485400DFF88038E93A1A60DFF87C284FF44073B7
:104864001360A3F59073033B4FF4C0723B60326056
:10487400113B6E322B6022600520FEF7B3FE502000
:10488400FEF7A0FCDFF854284FF4EE731360DFF852
:1048940038384FF4FF721A60DFF830386F3A1A6014
:1048A400DFF82C38F9321A60DFF82838E63A1A6053
:1048B400DFF8242840F2FD2313604FF4F0734FF423
:1048C400BF723B603260103B74322B602260052063
:1048D400FEF788FE5020FEF775FCDFF800384FF431
:1048E400EF721A60DFF8E03722321A60DFF8DC3743
:1048F400713A1A60DFF8D837F6321A60DFF8D43725
:10490400E33A1A60DFF8D02740F2F9231360A3F5E5
:104914008B734FF4BE723B603260103B79322B6074
:1049240022600520FEF75EFE5020FEF74BFCDFF808
:10493400AC3740F2E1121A60DFF88C3722321A6089
:10494400DFF88837743A1A60DFF88437F2321A6075
:10495400DFF88037DE3A1A60DFF87C3702F5A97297
:104964001A604FF4F3734FF4BD723B6032600F3B37
:104974007F322B6022600520FEF734FE5020FEF7C4
:1049840021FCDFF8583740F2E3121A60DFF83837B9
:1049940023321A60DFF83437783A1A60DFF8303798
:1049A400EF321A60DFF82C37DA3A1A60DFF828277A
:1049B40040F2F22313604FF4F4734FF4BC723B6083
:1049C40032600D3B84322B6022600620FEF70AFE23
:1049D4005020FEF7F7FBDFF804374FF4F3721A6048
:1049E400DFF8E43622321A60DFF8E0367B3A1A60E8
:1049F400DFF8DC36EB321A60DFF8D836D53A1A60C5
:104A0400DFF8D42640F2EE231360A3F58073033B52
:104A14004FF4BB723B6032600D3B8A322B602260E4
:104A24000620FEF7DFFD5020FEF7CCFBDFF8AC36A6
:104A34004FF4F4721A60DFF8903623321A60DFF80C
:104A44008C367F3A1A60DFF88836E6321A60DFF86F
:104A54008436CF3A1A60DFF8802640F2EA231360E6
:104A6400FD3B3B60783B4FF4F17233608F332A6037
:104A740023600620FEF7B6FD5020FEF7A3FBDFF807
:104A84005C2640F2EB131360DFF83C2622331360FC
:104A9400DFF83826823B1360DFF83426E2331360F4
:104AA400DFF83026CB3B1360DFF82C2603F5A27326
:104AB4001360F73B40F273123B603260093B94325F
:104AC4002B6022600620FEF78DFD5020FEF77AFB56
:104AD400DFF8083640F2ED121A60DFF8EC352332C5
:104AE4001A60DFF8E835853A1A60DFF8E435DC321D
:104AF4001A60DFF8E035C53A1A60DFF8DC2540F2C9
:104B0400E2231360F13B40F273123B603260073BD7
:104B140098322B6022600620FEF764FD5020FEF7D9
:104B240051FBDFF8B8354FF4F8721A60DFF89835A6
:104B340023321A60DFF89435893A1A60DFF8902539
:104B440040F261231360DFF88C3540F2A1121A6041
:104B5400DFF8842540F2DE231360EB3B4FF4B97297
:104B64003B603260053B9C322B6022600620FEF7DE
:104B740039FD5020FEF726FBDFF8603540F2F312D2
:104B84001A60DFF8443522321A60DFF840358C3A77
:104B94001A60DFF83C35D2321A60DFF83835BB3A98
:104BA4001A60DFF8343502F59C7203321A604FF450
:104BB400FB734FF4B9723B603260043BA0322B604C
:104BC40022600620FEF70EFD5020FEF7FBFADFF808
:104BD4000C3540F2F5121A60DFF8EC3423321A6017
:104BE400DFF8E834903A1A60DFF8E42440F2552301
:104BF4001360DFF8E0344FF4CF721A60DFF8D83472
:104C040002F59C7201321A604FF4FC734FF4B972CE
:104C14003B603260023BA3322B6022600620FEF729
:104C2400E1FC5020FEF7CEFADFF8B0344FF4FC720A
:104C34001A60DFF8943422321A60DFF89034923A22
:104C44001A60DFF88C34C8321A60DFF88834B43A5A
:104C54001A60DFF8843402F59A7203321A604FF452
:104C6400FD73A2F5B0723B603260013BA6322B604B
:104C740022600620FEF7B6FC5020FEF7A3FADFF808
:104C84005C3440F2FB121A60DFF83C3422321A60C2
:104C9400DFF83834963A1A60DFF83434C5321A60D3
:104CA400DFF83034B23A1A60DFF82C244FF434734E
:104CB4001360D33B3B60893B40F2FD123360A83361
:104CC4002A6023600620FEF78DFC5020FEF77AFA56
:104CD400DFF8082440F2FD131360FB4A223313600B
:104CE400FA4A983B1360FA4AC1331360F94AB03B5D
:104CF4001360F94A4FF433731360CD3B4FF4BB7226
:104D04003B6032600233A9322B6022600720FEF739
:104D140069FC5020FEF756FAF04B4FF400721A600B
:104D2400E94B22321A60E94B9B3A1A60E84BBF32D6
:104D34001A60E84BB13A1A60E74B02F59A721A60AE
:104D440040F20223A2F5A8723B6032600333AA3218
:104D54002B6007202260FEF745FC5020FEF732FA54
:104D6400DE4B40F202221A60D74B22321A60D74B34
:104D74009D3A1A60D64BBD321A60D64BB23A1A60CD
:104D8400D54A40F2C6231360C13B4FF4BE723B6068
:104D940032600433AA322B6022600720FEF722FC23
:104DA4005020FEF70FFACD4B40F205221A60C64B95
:104DB40021321A60C54B9F3A1A60C54BBD321A6046
:104DC400C44BB63A1A60C44A40F2C3231360BB3BD7
:104DD40040F281123B6032600433A8322B602260BF
:104DE4000720FEF7FFFB5020FEF7ECF9BB4B40F227
:104DF40007221A60B44B21321A60B44BA13A1A60EC
:104E0400B34BBE321A60B34BBB3A1A60B24B4FF489
:104E140030721A60A2F59C72033A4FF403733B603C
:104E240032600433A7322B6007202260FEF7DAFBDE
:104E34005020FEF7C7F9A94B40F209221A60A24B91
:104E440021321A60A14BA33A1A60A14BC0321A60F6
:104E5400A04BC13A1A60A04A40F2BD231360AE3B96
:104E640040F28B123B6032600433A4322B60226028
:104E74000720FEF7B7FB5020FEF7A4F9974B4FF439
:104E840003721A60904B20321A60904BA43A1A6055
:104E94008F4BC3321A608F4BCA3A1A608E4A40F263
:104EA400BA231360A63B40F291123B603260033395
:104EB400A1322B6022600720FEF794FB5020FEF7FE
:104EC40081F9864B40F20E221A607F4B20321A6021
:104ED4007E4BA63A1A607E4BC8321A607D4BD43A98
:104EE4001A607D4B02F59C7203321A604FF406730C
:104EF4004FF4CC723B60326002339D322B6007204A
:104F04002260FEF76FFB5020FEF75CF9734B4FF401
:104F140004721A606C4B20321A606C4BA83A1A6007
:104F24006B4BCE321A606B4BE03A1A606A4A40F21D
:104F3400B5231360983B40F29F123B602B601B33F8
:104F4400326023600720FEF74DFB5020FEF73AF94C
:104F5400624A40F2122313605B4A203313605B4AB7
:104F6400AA3B13605A4AD53313605A4AED3B136087
:104F7400594A03F5A1731360903B40F2A7123B60BA
:104F84003260023B93322B6022600720FEF72AFB3B
:104F94005020FEF717F9514B4FF405721A604A4B33
:104FA40020321A60494BAC3A1A60494BDE321A601F
:104FB400484BFD3A1A60484A4FF42C731360893BFE
:104FC4004FF4D8723B603260043B8D322B60226018
:104FD4000820FEF707FB5020FEF7F4F83F4B40F2A1
:104FE40016221A60384B1F321A60384BAD3A1A60D9
:104FF400374BE7321A60374A40F263131360364A7C
:1050040003F5A5731360813B40F2B9123B60326033
:10501400063B86322B6022600820FEF7E3FA50201C
:10502400FEF7D0F82D4B4FF406721A60264B1F3250
:105034001A60264BAF3A1A60254BF1321A60254AA2
:105044004FF4AE731360244A03F5A673033313605D
:10505400793B4FF4E1723B603260093B7F322B6055
:1050640022600820FEF7BEFA5020FEF7ABF81B4B77
:1050740040F219221A60144B1F321A60134BB03AD3
:105084001A60134BFB321A60124A4FF4AA7313606E
:10509400114A03F5AA7301331360713B4FF4E672AE
:1050A4003B6032600D3B78322B6022600820FEF7B3
:1050B40099FA5020FEF786F8084B40F21B221A603A
:1050C400014B1F321A600BE0300000203400002036
:1050D400380000203C000020400000202C0000206C
:1050E400DFF8443CB33A1A60DFF8403C02F58272C0
:1050F40003321A60DFF8382C40F24D131360DFF8E6
:10510400342C03F5AC7301331360683B4FF4EB723A
:105114003B603260103B70322B6022600820FEF747
:1051240061FA5020FEF74EF8DFF80C3C4FF407729A
:105134001A60DFF8083C1F321A60DFF8EC3BB43A1F
:105144001A60DFF8E82B40F299231360DFF8E03BA4
:1051540040F245121A60DFF8DC3B4FF429721A6002
:10516400C33A4FF411733B603260143B66322B60D8
:1051740022600820FEF736FA5020FEF723F8DFF805
:10518400B83B40F21E221A60DFF8B03B1E321A60B0
:10519400DFF8943BB63A1A60DFF8903B4FF429727B
:1051A4001A60DFF88C3BA2F5B272033A1A60DFF89A
:1051B400842B40F2A2231360583B40F2EB123B6075
:1051C4003260183B5E322B6022600820FEF70AFA38
:1051D4005020FDF7F7FFDFF8603B40F21F221A6012
:1051E400DFF8583B1E321A60DFF83C3BB73A1A60CE
:1051F400DFF8382B40F2AE231360DFF8343B40F283
:1052040035121A60DFF82C2B40F29F2313604F3BBA
:1052140040F2F5123B6032601C3B56322B60226038
:105224000820FEF7DFF95020FDF7CCFFDFF8083B3C
:105234004FF408721A60DFF8043B1E321A60DFF87C
:10524400E83AB93A1A60DFF8E42A4FF42E7313608F
:10525400DFF8DC2AA3F5C473033B1360DFF8D42A18
:1052640003F5B8731360463B4FF400723B60326041
:10527400213B4C322B6022600820FEF7B3F950200A
:10528400FDF7A0FFDFF8B03A40F221221A60DFF800
:10529400AC3A1E321A60DFF8903ABB3A1A60DFF873
:1052A4008C2A40F2C1231360DFF8843A40F22512BD
:1052B4001A60DFF8802A40F29B2313603E3B40F2E1
:1052C4000A223B603260263B44322B602260082075
:1052D400FEF788F95020FDF775FFDFF85C3A40F2DD
:1052E40022221A60DFF8543A1E321A60DFF8383A84
:1052F400BD3A1A60DFF8343A02F5A3721A60DFF897
:10530400303AA2F5D6721A60DFF8282A4FF42673D1
:105314001360353B4FF405723B6032602A3B3B32ED
:105324002B6022600920FEF75DF95020FDF74AFF4B
:10533400DFF8043A40F223221A60DFF8003A1D3203
:105344001A60DFF8E439BF3A1A60DFF8E02940F266
:10535400CF231360DFF8D829A3F5DD731360DFF8DA
:10536400D42903F5C073013313602D3B40F21E2290
:105374003B6032602F3B32322B6022600920FEF703
:1053840031F95020FDF71EFFDFF8AC3940F223223B
:105394001A60DFF8A8391E321A60DFF88C39C13A76
:1053A4001A60DFF888294FF435731360DFF8802919
:1053B400A3F5E273033B1360DFF8783940F29322DC
:1053C4001A606C3A40F26E233B603260333B2A32FF
:1053D4002B6022600920FEF705F95020FDF7F2FE4C
:1053E400DFF854394FF409721A60DFF850391D326E
:1053F4001A60DFF83439C23A1A60DFF830294FF402
:1054040036731360DFF8283940F205121A60DFF8AA
:10541400242940F2912313601E3B4FF40C723B602D
:105424003260373B21322B6022600920FEF7DAF824
:105434005020FDF7C7FEDFF800394FF409721A60F7
:10544400DFF8F8381D321A60DFF8DC38C33A1A6026
:10545400DFF8D83802F5AE721A60DFF8D428FE23DC
:105464001360DFF8D03840F28E221A60563A4FF4B7
:105474001E733B6032603C3B1A322B602260092071
:10548400FEF7B0F85020FDF79DFEDFF8AC384FF47E
:1054940009721A60DFF8A4381D321A60DFF8883800
:1054A400C43A1A60DFF8843802F5AF721A60DFF884
:1054B4008028F7231360DFF87C3840F28B221A60CF
:1054C4004C3A40F27D233B603260403B13322B6008
:1054D40022600920FEF786F85020FDF773FEDFF8FE
:1054E40058384FF409721A60DFF850381D321A60C8
:1054F400DFF83438C53A1A60DFF8303802F5AF7295
:105504001A60DFF82C28F1231360DFF8283840F202
:1055140089221A60433A40F281233B603260443B63
:105524000D322B6022600920FEF75CF85020FDF755
:1055340049FEDFF804384FF409721A60DFF8FC37CB
:105544001D321A60DFF8E037C63A1A60DFF8DC373C
:1055540002F5AE721A60DFF8D827EB231360DFF888
:10556400D43740F286221A603B3A40F285233B60EE
:105574003260483B08322B6022600920FEF732F883
:105584005020FDF71FFEDFF8B0374FF409721A60A0
:10559400DFF8A8371D321A60DFF88C37C73A1A6073
:1055A400DFF8883702F5AC7201321A60DFF8802721
:1055B400E5231360DFF87C3740F283221A60333A24
:1055C4004FF422733B6032604B3B03322B6022600A
:1055D4000920FEF707F85020FDF7F4FDDFF85837EF
:1055E40040F223221A60DFF854371D321A60DFF8C4
:1055F4003837C73A1A60DFF8342740F2CE231360F5
:10560400DFF82C27E0231360DFF828374FF42072EB
:105614001A6040F28A233B60363B443A3360023BD3
:105624002A6023600920FDF7DDFF5020FDF7CAFD45
:10563400DFF8042740F223231360DFF800271D332B
:105644001360DFF8E426C83B1360DFF8E02603F5B7
:10565400A67303331360DFF8D826DB231360DFF867
:10566400D43640F27E221A604FF42373273A3B600B
:105674003260503B053A2B6022600A20FDF7B2FFEE
:105684005020FDF79FFDDFF8B03640F222221A6069
:10569400DFF8A8361D321A60DFF88C36C73A1A6074
:1056A400DFF888364FF430721A60DFF88426D82386
:1056B4001360DFF8803640F27B221A60213A40F210
:1056C4008E233B603260533B093A2B6022600A20F0
:1056D400FDF788FF5020FDF775FDDFF85C3640F2DA
:1056E40021221A60DFF854361D321A60DFF838368A
:1056F400C63A1A60DFF8343602F59E7203321A6035
:10570400DFF82C36D4221A60DFF828364FF41E72E4
:105714001A601D3A40F28F233B603260553B0A3ACF
:105724002B6022600A20FDF75DFF5020FDF74AFD43
:10573400DFF804364FF408721A60DFF800361E32C0
:105744001A60DFF8E435C63A1A60DFF8E02540F263
:10575400AF231360DFF8D835D2221A60DFF8D435CE
:1057640002F5D07203321A601A3A4FF424733B6084
:105774003260573B0B3A2B600A202260FDF732FF60
:105784005020FDF71FFDDFF8B03540F21F221A60EC
:10579400DFF8A8351E321A60DFF88C35C53A1A6076
:1057A400DFF8882540F2A5231360DFF88435D02282
:1057B4001A60DFF8803502F5D1721A60183A4FF496
:1057C40024733B603260593B0B3A2B6022600A2001
:1057D400FDF708FF5020FDF7F5FCDFF85C3540F2DB
:1057E4001E221A60DFF854351D321A60DFF838358E
:1057F400C33A1A60DFF834254FF427731360DFF8D7
:105804003035CF221A60DFF82C3502F5D0721A60D9
:10581400163A40F28F233B603260593B0B3A2B60BF
:1058240022600A20FDF7DEFE5020FDF7CBFCDFF8F6
:1058340008354FF407721A60DFF800351E321A601B
:10584400DFF8E434C23A1A60DFF8E03402F58C720F
:1058540003321A60DFF8D834CF221A60DFF8D43468
:1058640002F5CF721A60173A40F28E233B60326021
:105874005A3B0A3A2B6022600A20FDF7B3FE5020FF
:10588400FDF7A0FCDFF8B03440F21B221A60DFF809
:10589400AC341E321A60DFF89034C03A1A60DFF874
:1058A4008C3402F589721A60DFF88434CF221A60CE
:1058B400DFF8803402F5CC7203321A6040F28D2393
:1058C4003B603A3B383A3360083B2A6023600A2045
:1058D400FDF788FE5020FDF775FCDFF85C2440F2EC
:1058E40019231360DFF854241E331360DFF83824BF
:1058F400BE3B1360DFF8342403F585731360DFF8CF
:105904003024D0231360DFF82C2403F5CA73033347
:105914001360183B40F28B223A6033605B3A063BDB
:105924002A6023600A20FDF75DFE5020FDF74AFC43
:10593400DFF8042440F217231360DFF800241F3338
:105944001360F94ABC3B1360F84A4FF41F731360A9
:10595400F74BD2221A60F74A40F2652313602433CE
:1059640040F24A223B6032605C3B023A2B60226088
:105974000A20FDF737FE5020FDF724FCEE4B40F2E1
:1059840015221A60ED4B1F321A60E74BB93A1A60C0
:10599400E64BFB321A60E64BD4221A60E54B02F563
:1059A400C67203321A601E3A40F287233B603260AB
:1059B4005C3B01322B6022600B20FDF713FE50206C
:1059C400FDF700FCDC4B40F213221A60DB4B1F3264
:1059D4001A60D54BB63A1A60D44BF5321A60D44AE1
:1059E400D7231360D34B4FF418721A60203A40F255
:1059F40085233B6032605D3B04322B6022600B20C8
:105A0400FDF7F0FD5020FDF7DDFBCB4B40F21122FA
:105A14001A60CA4A40F231231360C34B40F27D122C
:105A24001A60C24BF1321A60C14ADA231360C14AC8
:105A340003F5C273136024333B605D3B40F23A22AA
:105A44002B601D33326023600B20FDF7CBFD50200B
:105A5400FDF7B8FBB84B40F20E221A60B74B213267
:105A64001A60B14BB13A1A60B04BED321A60B04AC9
:105A7400DF231360AF4B40F25D221A604FF42073B2
:105A84003B604D3B3A3A33600C332A6023600B2071
:105A9400FDF7A8FD5020FDF795FBA74A4FF40373CB
:105AA4001360A64A213313609F4AAD3B13609F4A9B
:105AB400EA3313609E4AE32313609E4B40F25B2259
:105AC4001A602E3A40F27E233B6032605F3B103214
:105AD4002B6022600B20FDF785FD5020FDF772FB43
:105AE400954B40F209221A60944B21321A608E4B76
:105AF400A93A1A608D4BE9321A608D4AE823136083
:105B04008C4B40F25A221A60333A40F27B233B60BA
:105B140032605F3B13322B6022600B20FDF762FD85
:105B24005020FDF74FFB844B40F207221A60834B51
:105B340021321A607C4BA53A1A607C4BE8321A6019
:105B44007B4AED2313607B4B4FF416721A60383A8C
:105B540040F279233B603260603B18322B60226054
:105B64000B20FDF73FFD5020FDF72CFB724B4FF44B
:105B740001721A60714B22321A606B4BA23A1A609E
:105B84006A4BE9321A606A4AF3231360694B40F2A4
:105B940057221A603D3A40F277233B603260623B01
:105BA4001B322B6022600B20FDF71CFD5020FDF7FB
:105BB40009FB614B40F201221A60604B22321A60E9
:105BC400594B9D3A1A60594BE9321A60584AF923E5
:105BD4001360584B40F257221A60433A40F276233E
:105BE4003B603260643B1E322B6022600B20FDF769
:105BF400F9FC5020FDF7E6FA4F4B4FF4FF721A60A0
:105C04004E4B23321A60484B993A1A60474BEA329A
:105C14001A60474AFF231360464B40F256221A602B
:105C2400473A40F275233B603260673B20322B6079
:105C340022600B20FDF7D6FC5020FDF7C3FA3E4B43
:105C440040F2FB121A603D4B23321A60364B943AF1
:105C54001A60364BEB321A60354BA2F5B8721A60F3
:105C6400344B02F5A87201321A604FF41D734C3A9A
:105C74003B60483B32602A6023600C20FDF7B2FC95
:105C84005020FDF79FFA2C4A4FF4FC7313602B4A03
:105C940024331360244A903B1360244AEC3313608A
:105CA400234AA3F5B673013B1360224B40F25622FC
:105CB4001A604FF41D73503A3B604B3B32602A60CC
:105CC40023600C20FDF78EFC5020FDF77BFA1A4A66
:105CD40040F2F5131360194A24331360124A8B3BC4
:105CE4001360124AED331360114AA3F5B5731360C0
:105CF400104B40F256221A6040F27523543A3B602E
:105D04004F3B32602A6023600C20FDF76BFC50206F
:105D1400FDF758FA084A4FF4F9731360074A24331D
:105D24001360014A853B0BE034000020380000205A
:105D34003C000020400000202C0000203000002007
:105D44001360DFF8EC25EC331360DFF8E825A3F5E6
:105D5400B3731360DFF8E03540F256221A60573A05
:105D640040F276233B603260783B23322B60226022
:105D74000C20FDF737FC5020FDF724FADFF8BC3582
:105D840040F2EF121A60DFF8B83525321A60DFF8F6
:105D9400B4254FF4CA731360DFF8943540F27F22C0
:105DA4001A60DFF89035A2F5B1721A60DFF8883511
:105DB40002F59D721A605A3A40F277233B603260D2
:105DC4007D3B22322B6022600C20FDF70BFC50201F
:105DD400FDF7F8F9DFF864354FF4F6721A60DFF86E
:105DE400603525321A60DFF85C357A3A1A60DFF8DC
:105DF4004035E8321A60DFF83C254FF491731360A4
:105E0400DFF834354FF416721A605D3A40F27923A4
:105E14003B603260833B20322B6022600C20FDF714
:105E2400E1FB5020FDF7CEF9DFF8103540F2E9121E
:105E34001A60DFF80C3525321A60DFF80835743A39
:105E44001A60DFF8EC34E5321A60DFF8E834A2F5C2
:105E5400AC721A60DFF8E0344FF416721A605D3ADF
:105E640040F27B233B603260893B1D322B60226011
:105E74000C20FDF7B7FB5020FDF7A4F9DFF8BC3484
:105E84004FF4F3721A60DFF8B83425321A60DFF881
:105E9400B4346D3A1A60DFF89834E0321A60DFF8EF
:105EA40094344FF496721A60DFF88C3402F59672CB
:105EB40001321A605F3A40F27E233B603260903BCD
:105EC4001A322B6022600C20FDF78CFB5020FDF76A
:105ED40079F9DFF8683440F2E3121A60DFF86034CD
:105EE40025321A60DFF85C34673A1A60DFF8403410
:105EF400DC321A60DFF83C2440F231131360DFF81F
:105F0400383440F25B221A60613A4FF420733B60EC
:105F14003260963B16322B6022600C20FDF762FB48
:105F24005020FDF74FF9DFF814344FF4F0721A6083
:105F3400DFF80C3425321A60DFF80834603A1A604E
:105F4400FB4BD5321A60FB4BA2F5A272013A1A60E0
:105F5400F94A4FF417731360273340F2FB123B6086
:105F640032609D3B12322B6022600C20FDF73AFB1D
:105F74005020FDF727F9F14B40F2DD121A60F04B87
:105F840026321A60EF4B5A3A1A60E94BCE321A6045
:105F9400E84A4FF49C731360E74B40F25D221A60A9
:105FA400613A40F286233B603260A43B0D322B60A1
:105FB40022600D20FDF716FB5020FDF703F9DF4B9F
:105FC4004FF4ED721A60DE4B26321A60DD4B523A02
:105FD4001A60D74BC6321A60D64A40F23B1313609C
:105FE400D54A03F592731360293340F2FD123B60E6
:105FF4003260AA3B08322B6022600D20FDF7F2FAD2
:106004005020FDF7DFF8CD4B40F2D7121A60CC4B8D
:1060140026321A60CB4B4C3A1A60C54BC0321A6018
:10602400C44A4FF49F731360C34B4FF418721A6041
:10603400623A40F28A233B603260B03B03322B6009
:1060440022600D20FDF7CEFA5020FDF7BBF8BB4BC4
:106054004FF4EA721A60BA4B26321A60B94B453AC9
:106064001A60B34BBA321A60B24BA2F597721A6037
:10607400B14A40F262231360293340F2FF123B60BD
:106084003260B53B013A2B6022600D20FDF7AAFA7D
:106094005020FDF797F8A94B4FF4E9721A60A84B0A
:1060A40025321A60A74B3F3A1A60A14BB5321A60E9
:1060B400A04A40F2431313609F4B4FF419721A60C5
:1060C400653A4FF423733B603260BA3B053A2B6068
:1060D40022600D20FDF786FA5020FDF773F8974BE8
:1060E40040F2CF121A60964B25321A60954B3A3A19
:1060F4001A608F4BB2321A608E4BA2F59272033A39
:106104001A608D4B02F5907201321A60683A40F2BF
:106114008B233B603260BC3B083A2B6022600D202D
:10612400FDF760FA5020FDF74DF8844B40F2CD1294
:106134001A60834B24321A60824B363A1A607C4BC5
:10614400B1321A607B4B4FF4A3721A607A4B02F59A
:10615400907203321A606C3A40F289233B603260D9
:10616400BE3B0B3A2B6022600D20FDF73BFA50201A
:10617400FDF728F8714B40F2CB121A60704B2432B1
:106184001A60704B343A1A60694BB3321A60694A28
:1061940040F247131360684B4FF41B721A60713A54
:1061A40040F285233B603260BD3B0C3A2B60226099
:1061B4000D20FDF717FA5020FDF704F85F4B40F26D
:1061C400C9121A605E4B23321A605E4B333A1A606E
:1061D400574BB8321A60574A4FF4A4731360564BA6
:1061E40040F26F221A604FF42073783A3B603260B9
:1061F400BB3B0C3A2B6022600D20FDF7F3F95020D5
:10620400FCF7E0FF4D4B40F2C7121A604C4B2232B0
:106214001A604C4B353A1A60454BC0321A60454BF4
:10622400A2F59472033A1A60434B02F595721A6010
:10623400823A40F279233B603260B73B0A3A2B60E2
:1062440022600D20FDF7CEF95020FCF7BBFF3B4B3D
:1062540040F2C5121A603A4B22321A60394B393A6D
:106264001A60334BCB321A60324BA2F598721A6023
:10627400314B4FF41E721A608D3A40F26F233B602B
:106284003260AF3B073A2B6022600E20FDF7AAF97B
:106294004FF4FA70FCF796FF284B4FF4E2721A6041
:1062A400274B20321A60274B3F3A1A60204BD832D2
:1062B4001A60204BA2F59A721A601F4B02F59A726B
:1062C4001A609B3A4FF419733B603260A73B023A61
:1062D4002B6022600E20FDF785F94FF4FA70FCF76D
:1062E40071FF164B4FF4E1721A60154B20321A609D
:1062F400144A40F2991313600D4B40F281221A6044
:106304000C4BA2F59C721A600B4B4FF421721A606D
:1063140040F25623AC3A3B6032609B3B05320E2080
:106324002B602260FDF75EF94FF4FA70FDF7D9BADD
:10633400380000203C000020400000202C000020F9
:1063440030000020340000207047C046FEE7C046FD
:10635400FEE7C046FEE7C046FEE7C0467047C046BB
:106364007047C0467047C0467047C0467047C04635
:106374007047C0467047C0467047C0467047C04625
:106384007047C0467047C0467047C0467047C04615
:106394007047C0467047C0467047C0467047C04605
:1063A4007047C0467047C0467047C0467047C046F5
:1063B4007047C0467047C0467047C0467047C046E5
:1063C4007047C0467047C0467047C0467047C046D5
:1063D4007047C0467047C0467047C0467047C046C5
:1063E4007047C0467047C0467047C0467047C046B5
:1063F4007047C0467047C0467047C0467047C046A5
:106404007047C0467047C0467047C0467047C04694
:106414007047C0467047C0467047C0467047C04684
:106424007047C0467047C0467047C0467047C04674
:106434007047C0467047C0467047C0467047C04664
:106444007047C0467047C0467047C0467047C04654
:1064540000B581B0FCF7D8FE01B000BD00B581B035
:10646400FCF7EEFE01B000BD00B581B0FCF790FE74
:1064740001B000BD00B581B0FCF79AFE01B000BDCB
:1064840000B50346642081B000FB03F0FCF78AFEEC
:1064940001B000BD70B506460D46002409E0FCF7C6
:1064A40053FE08B9254606E0FCF75AFE631C305536
:1064B400DCB2AC42F3DB284670BDC04670B506467C
:1064C4000D46002404E0305DFCF768FF631CDCB279
:1064D400AC42F8DB284670BD00B581B0FCF728FE5D
:1064E40001B000BD00B581B0FCF77AFF01B000BD7A
:1064F40000B5084681B0FCF7BDFF012001B000BD26
:10650400014B18687047C04668000020014B987022
:106514007047C04684010020014B18717047C04683
:1065240084010020014B1B1859717047840100201D
:10653400014BD8707047C04684010020034B1B797F
:1065440018420CBF002001207047C04624020020DE
:10655400014BD8787047C04624020020014B1B1819
:10656400587970472402002000EB012080B2704764
:10657400C0B2704700F47F40000A704730B55349F9
:1065840081B00B68002B00F09F80514B514A9B78DF
:10659400FE2B00F09580126822B94F4B1A704F4BB6
:1065A40006221A704C4D4D4C2B7821784C48C91A50
:1065B400C018FFF76FFF2B78C0182378C0B283424E
:1065C400287003D9FFF756FF012808D0424B00205A
:1065D4001A78434902F1FF3CA2F1020E19E02B782C
:1065E4003C4A0BB9062300E0072313600022374B13
:1065F4004FE00B5CFF2B04D101EB00035B78FF2B16
:1066040009D0704503D111F80C30FF2B03D0431C83
:10661400D8B26045EDDB88B10021C0EB020CDFF895
:10662400C0E006E00EEB01031B5C0EF801304B1CCE
:10663400D9B26145F6DB284B121A1A70264D274C45
:1066440095F800C02378634521D8214B24489A78D3
:1066540083789A4203D01F4B07221A60C6E7C37897
:106664000433D9B28C4521700BD26044CCEB0101C8
:10667400FFF710FF2B78C0182378C0B2834228702C
:1066840005D8174B0021D87800229C460AE0114B0C
:1066940005221A6018E00CEB01039B781344DAB26C
:1066A4004B1CD9B28842F6DA0D4B6FEA02021B1872
:1066B400DB78D2B293420549064A01D0072300E0B1
:1066C4000123136000230B6001B030BD6C02002075
:1066D40084010020680000206B0200206A02002070
:1066E4002402002030B52D4981B00B68012B52D013
:1066F4002B48012390F803C00B60BCF1980F0BD812
:1067040003795A1ED2B2833B18BF0123052A94BFD2
:10671400002303F001032BB1224A04231360002356
:106724000B6038E04FF0FF33037043700021002208
:1067340006E000EB01039B781344DAB24B1CD9B298
:106744008C45F6DA164B6FEA02026344DA70154B95
:106754001B68063B012B01D8FFF7BEFE104DEC78F9
:1067640028460434E4B22146FFF7A8FEC0B28442AE
:1067740005D00C4B02221A600022084B0AE02B7948
:10678400022B02D1A879063000E00620FFF778FE3C
:10679400044B00221A6001B030BDC0466C020020D8
:1067A400840100206800002010B5FFF79BFF054A14
:1067B40013682BB91446FFF7E1FE2368052BFAD0C2
:1067C40010BDC0466800002000B50B4B81B01B68AB
:1067D40094467BB9094A032313711FFA8CF393710E
:1067E4001B0AD371052390705171D370FFF7DCFF3E
:1067F40001B000BDFEE7C0466C0200208401002009
:1068040000B50B4B81B01B688BB90A4A0223137184
:106814009371042390705171D370FFF7C5FF064B39
:106824009A79587900EB022080B201B000BDFEE7EE
:106834006C020020840100202402002000B5094BD2
:1068440081B01B68944663B9074B03221A71042272
:106854009870597183F806C0DA70FFF7A5FF01B08C
:1068640000BDFEE76C0200208401002000B50A4B45
:1068740081B01B6873B9094A022313710123937110
:1068840004239070D3705171FFF78EFF044B587935
:1068940001B000BDFEE7C0466C0200208401002068
:1068A4002402002000B5074B81B01B684BB9064B8E
:1068B40001221A7102229870DA70FFF775FF01B095
:1068C40000BDFEE76C0200208401002000B581B009
:1068D400FFF708FE01B000BD00B5094B013193FB81
:1068E400F1F381B01946FFF703FE30B1054B0122E5
:1068F4001A60054B00221A60012001B000BDC04699
:1069040080841E00680000206C020020044A136882
:1069140003F0380313601368184310607047C046CF
:1069240000200240044A136823F00803136013682C
:10693400184310607047C04600200240044A1368A0
:1069440023F0100313601368184310607047C046A7
:1069540000200240034B044A5A6002F188325A6014
:106964007047C0460020024023016745024A13696C
:1069740043F080031361704700200240014BD86943
:106984008008704700200240014B186A7047C046D7
:1069940000200240024BD869400800F00100704713
:1069A40000200240024B1868400900F001007047C3
:1069B4000020024021B1054A136940EA030303E0C1
:1069C400024A136923EA000313617047002002405E
:1069D400012804D1054BDB6903F0010005E0034BFA
:1069E400DB6818420CBF00200120704700200240E1
:1069F400014BD8607047C04600200240094AD36862
:106A040013F0010F01D001200BE0D36813F0040F41
:106A140001D0022005E0D36813F0100F14BF032047
:106A2400042070470020024010B5234A82B0D36886
:106A3400014613F0010F01D001202AE0D36813F0BE
:106A4400040F01D0022024E0D36813F0100F14BF08
:106A5400032004201DE00194CDF804C002E0019B52
:106A6400013B0193019B002BF9D1D36813F0010F73
:106A740001D001200BE0D36813F0040F01D00220F1
:106A840005E0D36813F0100F14BF0320042001396C
:106A940003E0094A00244FF0FF0C0B1E18BF01232A
:106AA400012814BF002303F00103002BD3D10029D4
:106AB40008BF052002B010BD00200240F0B5134B02
:106AC400134C81B0A36003F188330546A3600F2003
:106AD4000E461746FFF7A8FF042815D123690D4A6F
:106AE40043F01003236145F0F80346EA030347EA41
:106AF400030353800F20FFF797FF01281FBF22696C
:106B040041F6EF731340236101B0F0BD23016745E3
:106B14000020024000F8FF1F30B5054681B040F662
:106B2400FF70FFF781FF04283CD11F4C1F4B00F579
:106B34007E60A36003F18833A36023691B3043F0B4
:106B440020032361236943F040032361FFF76CFFB3
:106B5400042820D1236941F6DF7203EA020222618C
:106B6400236943F0100323611DB1114B4FF0000260
:106B740002E00F4B4FF0A5021A8040F6FF70FFF7BA
:106B840053FF01280ED0084941F6EF730A6902EA5F
:106B940003030B6106E001281FBF226941F6DF737E
:106BA4001340236101B030BD00200240230167453A
:106BB40000F8FF1F10B504460F20FFF735FF042827
:106BC40050D1294A294B6FEA0404936003F18833B6
:106BD40093601369E1B243F01003FF29136104D0F9
:106BE400234B0F201981FFF71FFF04F47F431A0A78
:106BF400B2F1FF0318BF0123042814BF002303F0DC
:106C0400010323B11A4B0F205A81FFF70DFF04F43F
:106C14007F031A0CB2F1FF0318BF0123042814BF29
:106C2400002303F0010323B1114B0F209A81FFF7D6
:106C3400FBFE220EB2F1FF0318BF0123042814BF88
:106C4400002303F0010323B1094B0F20DA81FFF77E
:106C5400EBFE01281FBF044941F6EF730A69134094
:106C640018BF0B6110BDC0460020024023016745D8
:106C740000F8FF1F70B506460F200D46FFF7D4FE3F
:106C8400042814D10A4C0B4B0F20A36003F1883362
:106C9400A360236943F0100323613580FFF7C4FE2A
:106CA40001281FBF226941F6EF731340236170BDB1
:106CB400002002402301674570B506460F200D46AB
:106CC400FFF7B2FE04280FD1084C0F20236943F0CC
:106CD400010323613580FFF7A7FE01281FBF226946
:106CE40041F6FE731340236170BDC046002002408C
:106CF40070B506460F200D46FFF796FE042817D1FF
:106D04000C4C0F20236943F001032361ABB23380A1
:106D1400FFF78AFE042804D12B0C73800F20FFF7A1
:106D240083FE01281FBF226941F6FE7313402361CD
:106D340070BDC0460020024010B540F6FF70FFF75A
:106D440073FE04282CD1174C174B00F57E60A3600A
:106D540003F18833A36023691B3043F020032361CC
:106D6400236943F040032361FFF75EFE042810D13A
:106D7400226941F6DF7302EA0303236123694FF0BA
:106D8400A50243F010032361084B0F201A80FFF77C
:106D94004BFE01281FBF226941F6EF7313402361A4
:106DA40010BDC046002002402301674500F8FF1FC4
:106DB40010B540F6FF70FFF737FE042813D10A4CD4
:106DC400236903432361236900F57E6043F0400394
:106DD40023611B30FFF728FE01281FBF226941F6FB
:106DE400FB731340236110BD0020024030B50546FB
:106DF40081B040F6FF70FFF717FE042815D10C4C44
:106E040000F57E6023691B3043F002032361656152
:106E1400236943F040032361FFF706FE01281FBFE7
:106E2400226941F6FD731340236101B030BDC046B1
:106E340000200240F0B5CD780E8815F0100F18BF71
:106E44008B7805F00F0718BF1F4316F0FF0F83B0B0
:106E54001ED004680021012212FA01F303EA060C91
:106E64009C4511D18A000F23934017FA02F224EAB9
:106E740003041443282D019308BFC0F814C003D0A1
:106E8400482D08BFC0F810C001310829E3D10460BF
:106E9400FF2E20D944680021012201F1080312FACF
:106EA40003F303EA060C9C4511D18A000F23934097
:106EB40017FA02F224EA03041443282D019308BFAD
:106EC400C0F814C003D0482D08BFC0F810C0013169
:106ED4000829E1D1446003B0F0BDC0464FF0FF3350
:106EE4000380022383700423C370704783681942AC
:106EF4000CBF002001207047806880B27047C046F4
:106F0400C36819420CBF002001207047C06880B2DA
:106F14007047C04601617047416170470AB1016121
:106F240000E041617047C046C160704741F480335E
:106F3400836181618361836983697047DFF818C065
:106F44004FF68073DCF8002041EA001102EA0303E3
:106F54001943CCF80010704700000140014B186041
:106F64007047C0461C00204230B500F440130404AE
:106F74000D461449240CB3F5401FD1F804C006D1C2
:106F84004B682CF0706223F070634B6010E010F4D7
:106F9400801F05D000F47022120C0323934003E0F9
:106FA400430D1B0114FA03F32CEA030343F070624C
:106FB40025B1430D1B0114FA03F31A43014B5A6024
:106FC40030BDC0460000014010B501F00304A40028
:106FD4000F23A340A040DFF820C0890802315CF8E9
:106FE400212022EA03024CF821205CF821301843C6
:106FF4004CF8210010BDC0460000014000B501203E
:10700400012181B000F0F6FB0120002100F0F2FB29
:1070140001B000BD00B5274B83B0984201902BD03E
:107024000CD8A3F5006398421AD003F58063984204
:107034001CD0A3F5006398423AD10BE01E4B984252
:1070440026D003F58063984228D0A3F500639842C4
:107054002ED117E00420012100F0CCFB042024E011
:107064000820012100F0C6FB08201EE010200121A9
:1070740000F0C0FB102018E02020012100F0BAFB32
:10708400202012E04020012100F0B4FB40200CE05D
:107094008020012100F0AEFB802006E04FF48070D8
:1070A400012100F0A7FB4FF48070002100F0A2FB47
:1070B40003B000BD00140140001C01400B4B4FF015
:1070C400FF316FF07042C3F880101846C3F8842073
:1070D400C3F88011C3F884210021002202F1C00307
:1070E40001320F2A40F82310F8D1704700E100E084
:1070F400094A4FF020630949536000239360D1602B
:10710400136153619361D36113625362013B9362D0
:10711400D36213637047C04600ED00E00000FA0537
:1071240040F0BE60024B40F42020D8607047C04657
:1071340000ED00E030B5C37805785BB31A4B4178B5
:10714400DA681A4C6FEA020202F4E062120AC2F12F
:10715400040399400F23D340827805F003001340C1
:107164000B43C0001B01FF22824083404FEA950C71
:107174000CF1C00C54F82C10134021EA02010B430B
:1071840044F82C3005F01F0201239340690944F8A8
:10719400213008E005F01F02012393406909034AE6
:1071A400203142F8213030BD00ED00E000E100E084
:1071B4000023037043708370C3707047034B04480B
:1071C4005B6803EA0000000B7047C04600ED00E076
:1071D40000F03F0000F01F0301229A404009054BD4
:1071E400403053F820001040904214BF002001208A
:1071F4007047C04600E100E0014B18607047C0468C
:1072040000EF00E04109012300F01F008340024A1F
:10721400603142F82130704700E100E0024B5868C9
:107224008005800D7047C04600ED00E000F01F03AC
:1072340001229A404009054B803053F82000104049
:10724400904214BF002001207047C04600E100E0D6
:10725400014B18687047C04600ED00E021F0604122
:1072640021F07F01014B01439960704700ED00E07C
:10727400014A024BDA6070470400FA0500ED00E0B1
:10728400014A024BDA6070470100FA0500ED00E0A4
:1072940021B1054A136940EA030303E0024A136972
:1072A40023EA00031361704700ED00E000F01F00C3
:1072B400012313FA00F021B1054A536A40EA03039B
:1072C40003E0034A536A23EA000353627047C0464B
:1072D40000ED00E010B5144CE3686FEA030303F417
:1072E400E0631B0AC3F1040C01FA0CF14FF0FF0C2C
:1072F4002CFA03F31A400A4300F0C001400900F0DD
:1073040018000CFA00FC120182408909063154F875
:10731400213023EA0C0344F8213054F821301A4375
:1073240044F8212010BDC04600ED00E0800A00F0C2
:107334000F0001238340044A506A03EA0000984284
:1073440014BF00200120704700ED00E000F01F0092
:1073540001238340024A51680B4353607047C0467F
:1073640000ED00E000F01F00013801238340024AD1
:1073740051680B435360704700ED00E0800B00F050
:107384000F0001238340044A506A03EA0000984234
:1073940014BF00200120704700ED00E0830C13F0BF
:1073A400030302D10D4BD86A17E0012B13D103F16B
:1073B400604303F56C43FE33020D013302F0030214
:1073C400996AD30031FA03F0022A14BF00F00F00C7
:1073D40000F0FF0001E0014B186B704700ED00E086
:1073E40010F4800F0BBF024B014B586B986B704726
:1073F40000ED00E000B581B001F088FB01B000BDF4
:1074040000B5000181B001F07EFB01B000BDC046B3
:1074140000B581B001F075FB01B000BD00B581B0CD
:1074240001F06DFB01B000BD00B581B001F065FB5A
:1074340001B000BD00B581B001F05DFB01B000BD3D
:10744400014B18607047C04620000E42014B186083
:107454007047C04610000E42034A136823F0E0034D
:10746400184310607047C04600700040014B18601C
:107474007047C046A0000E42034B5B6818420CBF25
:10748400002001207047C04600700040024A136883
:1074940043EA800313607047007000400B4A00B554
:1074A400136881B043F004031360136843F00203CC
:1074B400136002F1204202F5FA421032136843F0DD
:1074C4000403136001F0F2FA01B000BD0070004043
:1074D4000C4A00B5136881B023F00303184310600D
:1074E40002F1204202F5FA4210321368012943F0F6
:1074F4000403136002D101F0D9FA01E001F0D8FAD3
:1075040001B000BD0070004010B54FF0805420461B
:10751400012100F07DF92046002100F079F910BD29
:107524000D4A136843F00103136051680B4B01EAE1
:1075340003035360136823F0847323F480331360CC
:10754400136823F480231360536823F4FE03536009
:10755400002393607047C046001002400000FFF80B
:107564000B4AB0F5803F136823F48033136013682B
:1075740023F48023136003D0B0F5802F07D102E0F9
:107584001368034302E0136843F4A02313607047B5
:107594000010024082B00023094901930A68019B4C
:1075A400013312F4003F019303D1019BB3F5A06FA3
:1075B400F4D1034B1868400C00F0010002B070478E
:1075C40000100240034A136823F0F80343EAC0039F
:1075D4001360704700100240014B18607047C046AA
:1075E40000004242034A536823F47C1318430843BF
:1075F4005060704700100240014B18607047C0464D
:1076040060004242034A536823F003031843506066
:107614007047C04600100240024B586800F00C004E
:107624007047C04600100240034A536823F0F00339
:10763400184350607047C04600100240034A536824
:1076440023F4E063184350607047C04600100240C2
:10765400034A536823F4605343EAC00353607047FA
:107664000010024021B1054A137840EA030303E005
:10767400024A137823EA000313707047091002408A
:10768400014B18607047C046D8004242034A536811
:1076940023F44043184350607047C0460010024032
:1076A400064A002301281370137008BF107003D01A
:1076B400042801D1052313707047C04620100240EE
:1076C400014B18607047C04680044242024A136A64
:1076D400184310627047C04600100240014B186006
:1076E4007047C0463C044242294984464B6803F033
:1076F4000C03042B21D0082B1FD14B6803F4701307
:107704009B0C9A1C4B6813F4803F08BFC2EB4213D6
:1077140006D04B6813F4003F4FEA421306D09B1A7D
:10772400C3EB831302EBC3031B0207E09B1AC3EBF7
:10773400831302EBC3035B0200E0164B1448CCF83E
:1077440000304368144A03F0F0031B09D35CDCF8EF
:107754000010D940CCF80410436803F4E0631B0A1A
:10776400D35C31FA03F3CCF80830436803F4605374
:10777400DB0AD35C094AD940CCF80C10436803F403
:1077840040439B0BD35CB1FBF3F1CCF81010704772
:107794000010024000127A00748B0008848B0008E9
:1077A40021B1054A536940EA030303E0024A5369DD
:1077B40023EA0003536170470010024021B1054AD7
:1077C400936940EA030303E0024A936923EA00034E
:1077D400936170470010024021B1054AD36940EA21
:1077E400030303E0024AD36923EA0003D361704729
:1077F4000010024021B1054AD36840EA030303E0C4
:10780400024AD36823EA0003D360704700100240A1
:1078140021B1054A136940EA030303E0024A1369EC
:1078240023EA00031361704700100240014B186003
:107834007047C04640044242014B18607047C0463E
:107844004C004242014B18707047C046071002407A
:107854004309012B08D103F1804303F5023303F5F7
:10786400FF6307331B680CE0022B08D103F180434C
:1078740003F5023303F5FF6306331B6A01E0044B8F
:107884005B6A00F01F0033FA00F000F0010070475B
:1078940000100240024A536A43F0807353627047F7
:1078A40000100240034B9B6818420CBF00200120CB
:1078B4007047C04600100240014B18707047C04624
:1078C4000A100240042803D1044A1368034303E066
:1078D400024A136823F004031360704710E000E0C9
:1078E400014B58607047C04610E000E0012803D106
:1078F400084A1368034306E010F1020F05D1054A54
:10790400136823F00103136002E0024B00229A6023
:107914007047C04610E000E020B1054A136843F008
:10792400020303E0024A136823F002031360704762
:1079340010E000E0014B98687047C04610E000E09A
:10794400C308022B024606D103F1604303F56043EA
:107954000E33186801E0034BD868D04000F00100F2
:107964007047C04610E000E0038882B003F08F0344
:1079740003800388CA889BB213434A880190134347
:107984009BB203808B880B4A83850B888C460385C6
:107994004FF001038382084B984214BF0023012354
:1079A400904208BF43F0010313B19CF808300386EA
:1079B40002B07047002C014000340140038C8C4617
:1079C40023F001031B041B0C0384018C8388F0B592
:1079D4009DB2038BBCF808209EB2BCF8023021F0A3
:1079E4000201134309049BB2090C43EA0104BCF8E5
:1079F4000630BCF8007083861A4B1B4A984214BFA9
:107A04000023012383B0904208BF43F00103019097
:107A1400EBB102F14042A2F53052BCF80A30093A07
:107A240004EA02021A434FF6FB7302EA0303BCF8AA
:107A3400042047F6FF4143EA0204BCF80E30BCF8C8
:107A44000C2005EA010113439BB243EA01054FF6FA
:107A54008F7306EA03033B4385800383048403B0E6
:107A6400F0BDC04600340140002C0140038CF0B549
:107A740023F010031B041B0C0384038C828823F063
:107A8400200395B2028B1B0496B20A891B0C43EAAD
:107A940002134A889BB243EA02139CB2CB880F8834
:107AA40003871E4B1E4A984214BF0023012383B050
:107AB400904208BF43F0010301908C460BB302F1DE
:107AC4004042A2F53252BCF80A30013A04EA0202FA
:107AD40042EA03124FF6BF7302EA0303BCF8042020
:107AE40043EA02139CB2BCF80C2047F2FF3305EAC8
:107AF400030343EA8203BCF80E209BB243EA8203E9
:107B04009DB248F6FF7306EA030343EA07239BB2D8
:107B140085800383048403B0F0BDC0460034014073
:107B2400002C0140038CF0B523F480731B041B0C60
:107B34000384038C828823F4007395B2828B1B0424
:107B440096B20A891B0C43EA02234A889BB243EA91
:107B540002239CB2CB880F8883871D4B1D4A984211
:107B640014BF0023012383B0904208BF43F00103F4
:107B740001908C460BB302F14042A2F55052BCF87E
:107B84000A30013A04EA020242EA03224FF6FF33C2
:107B940002EA0303BCF8042043EA02239CB2BCF8C3
:107BA4000C2044F6FF7305EA030343EA0213BCF80E
:107BB4000E209BB243EA02139DB24FF68F7306EA7E
:107BC40003033B4385808383048403B0F0BDC04634
:107BD40000340140002C0140038CF0B523F48053A1
:107BE4001B041B0C0384038C85B09BB20293838813
:107BF4004A881FFA83FC838B0E889DB2CB880F8939
:107C0400A0F84030174B0192174A984214BF002342
:107C14000123904208BF43F0010303900C463BB19B
:107C24004FEA8C43A2899B0C43EA82131FFA83FC1C
:107C340048F6FF7305EA030343EA06239BB2029A5C
:107C4400A0F804C083834DF6FF7302EA030343EAFA
:107C54000733019A9BB243EA02339BB2038405B013
:107C6400F0BDC04600340140002C01400B8830B503
:107C740004460D4643BB238C498823F001031B04AF
:107C84001B0CB5F804C028892384238B228C23F091
:107C9400F3031B041B0C22F0020243EA0013120438
:107CA4009BB2120C41F0010143EA0C030A43238303
:107CB4002284238BEA8823F00C031B041B0C2383EC
:107CC400238B9BB213432EE0042B2ED1238CB1F8CB
:107CD40002C023F010031B041B0C88880989238429
:107CE400238B228C23F440731B0522F020021B0DEE
:107CF400120443EA0133120C9BB242EA0C1243EA27
:107D0400002392B29BB242F0100223832284238B7D
:107D1400EA8823F440631B041B0C2383238B9BB24C
:107D240043EA02239BB2238355E0082BB1F802C037
:107D34008888098925D1238C23F480731B041B0CA8
:107D44002384A38B228C23F0F30322F400721B04FC
:107D540012041B0C120C43EA011342EA0C229BB2DC
:107D640092B2034342F48072A3832284A38BEA88F1
:107D740023F00C031B041B0CA383A38B9BB21343A0
:107D840028E0238C23F480531B041B0C2384A38B33
:107D9400228C23F440731B0522F400521B0D1204A1
:107DA40043EA0023120C9BB242EA0C3243EA013349
:107DB40092B29BB242F48052A3832284A38BEA88BA
:107DC40023F440631B041B0CA383A38B9BB243EAE1
:107DD40002239BB2A38330BD8C46F0B5BCF80030BF
:107DE4004C888988002C0CBF0227002701290CBF6E
:107DF40002260126BCF80850002B4BD1038C23F03B
:107E040001031B041B0C0384038B028C23F0F30378
:107E14001B041B0C43EA051322F002029BB212045A
:107E24000B43120C44F001010A4303830284038BC5
:107E3400BCF8061023F00C031B041B0C0383038BF8
:107E44009BB20B430383038C23F010031B041B0C12
:107E54000384038B028C23F440731B0522F030024D
:107E64001B0D120443EA0533120C9BB242F01002BC
:107E740043EA062342EA071203830284038B23F4B2
:107E840040631B041B0C0383038B9BB243EA012353
:107E94009BB24CE0038C23F010031B041B0C0384E3
:107EA400038B028C23F440731B0522F020021B0D6C
:107EB400120443EA0533120C9BB242EA041243EA69
:107EC400012392B29BB242F0100203830284038B1B
:107ED400BCF8061023F440631B041B0C0383038BC0
:107EE4009BB243EA01239BB20383038C23F0010377
:107EF4001B041B0C0384038B028C23F0F3031B046D
:107F040022F003021B0C120443EA0513120C9BB269
:107F140042F0010233433A4303830284038B23F088
:107F24000C031B041B0C0383038B9BB20B430383C3
:107F3400F0BDC0460A884B8813438A881343CA8815
:107F440013430A8913434A8913438A8913439BB20F
:107F5400A0F844307047C0464FF0FF3383804FF0A1
:107F640000030380C3804380002303727047C0462C
:107F74004FF00003038043808380C38003814381E7
:107F84008381C3817047C0464FF000030380438060
:107F94004FF0010383804FF00003C38003817047D7
:107FA4004FF00003038043808380C38003814381B7
:107FB4008381704721B103889BB243F0010304E03D
:107FC400038823F001039B059B0D03807047C04683
:107FD40029B1B0F844309BB243F4004303E0B0F855
:107FE40044305B045B0CA0F84430704722B18389B1
:107FF4009BB241EA030303E083899BB223EA0103B2
:1080040083817047818270470A43A0F848207047F3
:1080140022B183899BB241EA030303E083899BB2C3
:1080240023EA010383817047038923F007031B04B8
:108034001B0C03817047C046038923F070031B04A3
:108044001B0C1943018103899BB243F0070303818D
:108054007047C04610B50C46602C11469C461AD198
:10806400038C23F010031B041B0C0384038B028C6E
:1080740023F4407322F030021B0512041B0D120C72
:1080840043F4807342F0100243EA0C3342EA0112D3
:108094009BB292B217E0038C23F001031B041B0C68
:1080A4000384038B028C23F0F3031B0422F00302EA
:1080B4001B0C120443F00103120C43EA0C1342F0AC
:1080C40001029BB20A4303830284038923F07003F1
:1080D4001B041B0C44EA0303038103899BB243F092
:1080E4000703038110BDC046B0F808C05FFA8CFCDA
:1080F40041EA0C010A4342EA032292B20281038953
:1081040023F077031B041B0C43F0770303817047B0
:10811400B0F808C05FFA8CFC41EA0C010A4342EA59
:10812400032292B2028103899BB243F48043038108
:108134007047C046B0F808C05FFA8CFC41EA0C01F5
:108144000A4342EA032292B2028170470185828285
:108154007047C046038823F070039B059B0D1943A9
:1081640001807047038923F070031B041B0C19431F
:1081740001817047B0F808C030B5048B058C24F435
:10818400407425F0220524F003042D042CF0070C80
:1081940024042D0C4FEA0C4C240C2A434FEA1C4CAB
:1081A40044F4807442EA031241EA0C0144F00104ED
:1081B40092B201810483028430BDC046038B23F054
:1081C40070031B041B0C194301837047038B23F4B6
:1081D400E0431B041B0C43EA01239BB20383704757
:1081E400838B23F070031B041B0C1943818370479A
:1081F400838B23F4E0431B041B0C43EA01239BB24F
:108204008383704721B103889BB243F0800304E069
:10821400038823F080039B059B0D03807047C046B1
:1082240021B183889BB243F0040304E0838823F0E4
:1082340004031B041B0C83807047C04621B1838850
:108244009BB243F0080304E0838823F008031B0473
:108254001B0C83807047C04621B183889BB243F0D6
:10826400010304E0838823F001031B041B0C8380B7
:108274007047C046038B23F008031B041B0C1943EF
:1082840001837047038B23F400631B041B0C43EA34
:1082940001239BB203837047838B23F008031B04E1
:1082A4001B0C194381837047838B23F400631B04E5
:1082B4001B0C43EA01239BB283837047038B23F097
:1082C40004031B041B0C194301837047038B23F421
:1082D40080631B041B0C43EA01239BB20383704796
:1082E400838B23F004031B041B0C19438183704705
:1082F400838B23F480631B041B0C43EA01239BB28E
:1083040083837047038B23F080031B041B0C1943E6
:1083140001837047038B5B045B0C43EA01239BB22C
:1083240003837047838B23F080031B041B0C1943C6
:1083340081837047838B5B045B0C43EA01239BB20C
:1083440083837047038C23F002031B041B0C194323
:1083540001847047038C23F008031B041B0C19438E
:1083640001847047038C23F020031B041B0C43EA95
:1083740001139BB203847047038C23F080031B0416
:108384001B0C43EA01139BB203847047038C23F450
:1083940000731B041B0C43EA01239BB20384704744
:1083A400038C23F400631B041B0C43EA01239BB2DC
:1083B40003847047038C23F400531B041B0C43EA0F
:1083C40001339BB20384704701238B408A40B0F889
:1083D40020C01FFA8CFC2CEA030CA0F820C0038CEC
:1083E4001A4392B20284704704238B408A40B0F847
:1083F40020C01FFA8CFC2CEA030CA0F820C0038CCC
:108404001A4392B20284704701238B409446028C33
:1084140082B092B222EA0302082914BF0023012386
:10842400002908BF43F00103019002846BB110F1ED
:108434001802490850584FF68F7300EA030353504B
:10844400535843EA0C03535010E001980A1F92B2A8
:1084540018305208815848F6FF7301EA0303835029
:1084640081584FEA0C239BB21943815002B07047E4
:1084740021B103889BB243F0020304E0038823F094
:1084840002039B059B0D03807047C04621B10388FE
:108494009BB243F0040304E0038823F004039B0528
:1084A4009B0D03807047C04621B183889BB243F083
:1084B400800304E0838823F080031B041B0C838067
:1084C4007047C046038823F008039B059B0D038077
:1084D40003889BB2194301807047C046838823F008
:1084E40070031B041B0C838083889BB21943818017
:1084F4007047C046038923F007031B041B0C038148
:1085040003899BB2194301817047C046038923F054
:1085140080031B041B0C038103899BB21943018153
:108524007047C04681847047818570478186704753
:108534000187704781877047A0F840107047C04694
:10854400038B23F00C031B041B0C0383038B9BB2D0
:10855400194301837047C046038B23F440631B0413
:108564001B0C0383038B9BB243EA01239BB203835B
:108574007047C046838B23F00C031B041B0C8383BE
:10858400838B9BB2194381837047C046838B23F44A
:1085940040631B041B0C8383838B9BB243EA01233C
:1085A4009BB283837047C0460388DBB20380038891
:1085B4009BB2194301807047808E80B27047C046D9
:1085C400008F80B27047C046808F80B27047C0462B
:1085D400B0F8400080B27047808C80B27047C046CB
:1085E400008D80B27047C046038A19420CBF002038
:1085F400012070476FEA010189B201827047C046C9
:10860400038A828919420CBF0020012011420CBF49
:10861400002000F0010070476FEA010189B2018275
:108624007047C04600B52F4B83B09842019037D0B5
:108634000BD8A3F50063984226D003F580639842D3
:1086440028D0B0F1804F4AD118E0274B984233D05C
:1086540004D8A3F58063984241D127E0234B984284
:1086640004D003F50063984239D12EE04FF4006042
:108674000121FFF7BFF84FF400602DE00120012134
:10868400FFF7C6F801201CE002200121FFF7C0F823
:10869400022016E004200121FFF7BAF8042010E0BC
:1086A40008200121FFF7B4F808200AE01020012176
:1086B400FFF7AEF8102004E020200121FFF7A8F80E
:1086C40020200021FFF7A4F809E04FF40050012115
:1086D400FFF790F84FF400500021FFF78BF803B038
:1086E40000BDC046000C004000140040002C0140B6
:1086F4004FF4165303604FF000038380C38003815B
:108704004FF00C0343814FF0000383817047C04650
:10871400B1F800C04B88028A43EA0C03B1F804C0E4
:10872400C98822F4706243EA0C0312040B43120C4E
:108734009BB21343038270474FF0000303804380CE
:108744008380C3807047C04621B183899BB243F4C0
:10875400005304E0838923F400531B041B0C83811E
:108764007047C046CBB24FEA531C01F01F010123EE
:1087740082B013FA01F1BCF1010F019001D10C3068
:1087840005E0BCF1020F01D1103000E0143012B149
:1087940003680B4302E0036823EA0103036002B0A9
:1087A4007047C04622B1838A9BB241EA030303E0C7
:1087B400838A9BB223EA010383827047038A23F0EE
:1087C4000F031B041B0C0382038A9BB20B4303821B
:1087D4007047C046838923F400631B041B0C838108
:1087E40083899BB2194381817047C04621B1838933
:1087F4009BB243F0020304E0838923F002031B04C9
:108804001B0C83817047C046038A23F020031B049A
:108814001B0C0382038A9BB2194301827047C04632
:1088240021B1038A9BB243F4804304E0038A23F416
:1088340080431B041B0C03827047C046C905C90D45
:10884400818070478088C005C00D704783899BB2C2
:1088540043F0010383817047038BDBB20383038BF3
:108864009BB243EA012303837047C046038B03F49E
:108874007F430383038B9BB20B4303837047C04640
:1088840021B1838A9BB243F0200304E0838A23F05E
:1088940020031B041B0C83827047C04621B1838ACA
:1088A4009BB243F0100304E0838A23F010031B04FB
:1088B4001B0C83827047C04621B1838A9BB243F06C
:1088C400080304E0838A23F008031B041B0C83823F
:1088D4007047C046838A23F004031B041B0C838265
:1088E400838A9BB2194381827047C04621B1838A2F
:1088F4009BB243F0020304E0838A23F002031B04C7
:108904001B0C83827047C046038819420CBF0020A9
:10891400012070476FEA010189B201807047C046A7
:10892400CBB24FEA531C01F01F02012313FA02F2E7
:10893400BCF1010F08BF838904D0BCF1020F0CBF46
:10894400038A838A9BB202EA030C0B0A01229A402F
:1089540003889BB21A420CBF00200120BCF1000F17
:108964000CBF002000F001007047C046090A012333
:108974008B406FEA03039BB203807047038ACA8863
:1089840023F440531B041B0C13430382828970B5E8
:108994000B890E46898822F4B0520B43718922F068
:1089A4000C020B431204120C9BB213438381838A7F
:1089B400B28923F440731B041B0C88B0134305468F
:1089C40083820190044603A8FEF78EFE104B1148E3
:1089D4009D420CBF069B059B03EB8301336801EBAF
:1089E40081019B00B1FBF3F1A1FB002364224FEA58
:1089F400531C0CFB121212013232A2FB00235B093E
:108A040003F00F0343EA0C139BB22B8108B070BD33
:108A1400003801401F85EB5100B5224B83B09842CA
:108A240001902BD008D8A3F50063984216D003F523
:108A34008063984234D119E01B4B984226D003F549
:108A4400684398422CD101214FF48040FEF7D2FEB6
:108A54004FF480400021FEF7CDFE21E04FF40030BA
:108A64000121FEF7D5FE4FF4003016E04FF48020CC
:108A74000121FEF7CDFE4FF480200EE04FF40020DC
:108A84000121FEF7C5FE4FF4002006E04FF48010EC
:108A94000121FEF7BDFE4FF480100021FEF7B8FE61
:108AA40003B000BD004C00400050004030BF704790
:108AB40020BF704740BF7047BFF36F8F7047BFF34D
:108AC4004F8F7047BFF35F8F704701DF7047EFF33D
